:020000040800F2
:1000000078090020710200084D130008DD0900087E
:100010004913000899070008C914000800000000EF
:100020000000000000000000000000005513000860
:10003000D9090008000000005113000859130008F6
:100040008B0200088B0200088B0200088B0200085C
:100050008B0200088B0200088B0200088B0200084C
:100060008B0200088B0200088B0200088B0200083C
:100070008B0200088B0200088B0200088B0200082C
:100080008B0200088B0200088B02000800000000B1
:100090000000000000000000000000008B020008CB
:1000A0008B0200088B0200088B0200088B020008FC
:1000B0008B0200088B0200088B0200088B020008EC
:1000C0008B0200088B0200088B0200088B020008DC
:1000D0008B0200088B0200088B0200080000000061
:1000E0008B0200088B0200088B0200080000000051
:1000F0000000000000000000000000008B0200086B
:10010000000000008B0200088B0200088B02000830
:1001100000000000000000000000000000000000DF
:100120008B0200088B0200088B0200088B0200087B
:100130008B0200080000000000000000000000002A
:100140000000000000000000000000008B0200081A
:100150008B0200088B0200088B0200088B0200084B
:100160008B0200088B020008000000000000000065
:10017000000000000000000000000000000000007F
:10018000000000008B0200080000000000000000DA
:100190008B02000800F002F800F05AF814A696E866
:1001A000000CB244B344DA4501D100F051F8BAE88A
:1001B0000F000FA696E83000A5EB040504EB060738
:1001C000AAEB0704A7F101074FEA15154FEA34140B
:1001D000A4F10104AC4201D300F03AF813F0010F8E
:1001E00018BFFB1A43F0010300F001F8DBE71847E2
:1001F000B05A0000D05A0000103A24BF78C878C125
:10020000FAD8520724BF30C830C144BF04680C601C
:1002100070470000704700000023002400250026DE
:10022000103A28BF78C1FBD8520728BF30C148BF59
:100230000B607047642900F04F80782900F08880B7
:10024000002070471FB503F0B9F91FBD10B510BDF0
:1002500000F067FA1146FFF7F5FF02F09FFE00F08D
:1002600085FA03B4FFF7F2FF03BC00F08DFA00003B
:100270000948804709480047FEE7FEE7FEE7FEE73A
:10028000FEE7FEE7FEE7FEE7FEE7FEE70448054976
:10029000054A064B70470000B51400089501000898
:1002A00078030020780900207805002078050020D8
:1002B0000FB41CB5074B06AA7B446946009005980D
:1002C00000F0E5F90020694600F0F4F91CBC5DF887
:1002D00014FB0000F90300002DE9F041064600245C
:1002E00010687529314616A510D0AFF3008000289C
:1002F00002DA404213A507E031688A0701D512A54A
:1003000002E0490704D511A5012401E0AFF3008004
:1003100000210A2206F1240709E0B0FBF2FCB0FB41
:10032000F2F302FB1C00303078541846491C0028B8
:10033000F3D123462A463046BDE8F04100F049B9E2
:10034000000000002D0000002B0000002000000035
:1003500070B504460D4621461068AFF30080218831
:10036000090502D50F4A7A4402E00E4A7A440E3259
:10037000002104F1240305E000F00F060009965D5A
:100380005E54491C0028F7D120780023000704D5CB
:10039000702D02D009B1022311322046BDE8704011
:1003A00000F017B96C3200002DE9F0474FF0000A59
:1003B00089460446C0F820A02046E1688847002806
:1003C00076D0252806D0D4E901219047206A401C28
:1003D0002062F1E7E168204600258847C4F81CA0A8
:1003E00006460027C4F818A02A2E09D0304603F08C
:1003F000DEF838B304EB8708303EC8F8186019E01F
:1004000059F8041B204604EB87029161E168884794
:10041000012F064618D1E069002820DA25F02005D2
:100420001DE0D8F8180000EB800006EB40003038E3
:10043000C8F818002046E1688847064603F0B7F878
:100440000028EED1012F0AD02E2E08D12046E168D7
:1004500088477F1C0646022F45F02005C4DBA069B3
:10046000002803DA404245F00105A061E80701D009
:1004700025F01005B6B1A6F14100192802D82036A2
:1004800045F400654A463146204625604D46FFF753
:10049000D1FE58B1012806D0ED1D25F0070000F16E
:1004A000080989E704E005F1040985E730468AE791
:1004B000206ABDE8F08710B5431C02E010F8011B6C
:1004C00071B18107FAD14FF0013202C88C1A8C4306
:1004D00014EAC211F9D0C01A0A0603D0C01E10BD1A
:1004E000C01A10BD0A0401D0801E10BD0902FCD044
:1004F000401E10BD032A40F2308010F0030C00F0C3
:10050000158011F8013BBCF1020F624498BF11F84D
:1005100001CB00F8013B38BF11F8013BA2F1040206
:1005200098BF00F801CB38BF00F8013B11F003037E
:1005300000F0C580083AC0F0088051F8043B083A42
:1005400051F804CBA0E80810F5E7121D5CBF51F884
:10055000043B40F8043BAFF30080D20724BF11F8FE
:10056000013B11F801CB48BF11F8012B24BF00F863
:10057000013B00F801CB48BF00F8012B70474FF05A
:10058000000200B5134694469646203922BFA0E8E3
:100590000C50A0E80C50B1F12001BFF4F7AF0907EF
:1005A00028BFA0E80C5048BF0CC05DF804EB8900E0
:1005B00028BF40F8042B08BF704748BF20F8022B23
:1005C00011F0804F18BF00F8012B7047704770473B
:1005D00070472DE9F0470D4699469246044600F1D2
:1005E00024080168880604D5E06921F01001216023
:1005F00000E00120A84201DD471B00E00027A169BF
:100600007A1902EB0900081AA0612078C00602D40A
:100610002046AFF30080002608E0D4E901211AF853
:1006200006009047206A401C761C20624E45F4DB91
:100630002078C0060AD52046AFF3008006E0D4E952
:10064000012130209047206A401C2062381EA7F10B
:100650000107F4DC07E0D4E9012118F80500904710
:10066000206A401C2062281EA5F10105F3DC20460B
:10067000AFF300802078000602D50220BDE8F087A5
:100680000120FBE701694A1C02610878704700B548
:100690008FB0CDE901310021059105497944CDE9BB
:1006A000031011466846FFF77FFE0FB000BD000043
:1006B000E5FFFFFF0A6802F8010B0A60704710B5FA
:1006C000203AC0F00B80B1E81850A0E81850B1E80B
:1006D0001850A0E81850203ABFF4F5AF5FEA027C4A
:1006E00024BFB1E81850A0E8185044BF18C918C07A
:1006F000BDE810405FEA827C24BF51F8043B40F81B
:10070000043B08BF7047D20728BF31F8023B48BFFF
:1007100011F8012B28BF20F8023B48BF00F8012B3D
:100720007047754600F02CF8AE4605006946534602
:1007300020F00700854618B020B5FFF7A7FDBDE8FB
:1007400020404FF000064FF000074FF000084FF038
:10075000000BAC46ACE8C009ACE8C009ACE8C00985
:10076000ACE8C00921F007018D46704710B504467A
:10077000AFF300802046BDE81040FFF772BD0000D7
:10078000004870471000002001491820ABBEFEE76A
:100790002600020070470000FEE7000080B54FEA27
:1007A000116E80F800E04FEA114E80F801E04FEA48
:1007B000112EC170110E0171110C4171110ADDF879
:1007C00008C08171190A80F802E0C2710172437297
:1007D0009CF8001081729CF80110C1729CF8021004
:1007E00001739CF8031041739CF8041081739CF80A
:1007F0000510C1739CF8061001749CF80710417431
:100800009CF8081081749CF80910C1749CF80A10B7
:1008100001759CF80B1041759CF80C1081759CF8C3
:100820000D10C1759CF80E1001769CF80F104176E2
:100830009CF8101081769CF81110C1769CF812106B
:1008400001779CF8131041779CF8141081779CF87D
:100850001510C1779CF8161080F820109CF817101E
:1008600080F821109CF8181080F822109CF81910BC
:1008700080F823109CF81A1080F824109CF81B10A4
:1008800080F825109CF81C1080F826109CF81D108C
:1008900080F827109CF81E1080F828109CF81F1074
:1008A00080F829109CF8201080F82A109CF821105C
:1008B00080F82B109CF8221080F82C109CF8231044
:1008C00080F82D109CF8241080F82E109CF825102C
:1008D00080F82F109CF8261080F830109CF8271014
:1008E00080F831109CF8281080F832109CF82910FC
:1008F00080F833109CF82A1080F834109CF82B10E4
:1009000080F835109CF82C1080F836109CF82D10CB
:1009100080F837109CF82E1080F838109CF82F10B3
:1009200080F839109CF8301080F83A109CF831109B
:1009300080F83B109CF8321080F83C109CF8331083
:1009400080F83D109CF8341080F83E109CF835106B
:1009500080F83F109CF8361080F840109CF8371053
:1009600080F841109CF8381080F842109CF839103B
:1009700080F843109CF83A1080F844109CF83B1023
:1009800080F845109CF83C1080F846109CF83D100B
:1009900080F847109CF83E1080F848109CF83F10F3
:1009A00080F849109CF8401080F84A109CF84110DB
:1009B00080F84B109CF8421080F84C109CF84310C3
:1009C00080F84D109CF8441080F84E109CF84510AB
:1009D00080F84F1080BD000070470000FEE7000067
:1009E000B0B583B045F21443C4F2000353F8144C7D
:1009F00044F4807443F8144C1C68E40709D11C6863
:100A0000E40704BF1C685FEAC47402D11C68E407F1
:100A1000F2D053F8144C400044F4806443F8144C72
:100A200053F8044C013060F3070443F8044C186891
:100A3000800709D4186880075CBF18685FEA807077
:100A400002D418688007F2D5022A35D0012A40F076
:100A5000918053F8140C20F4806043F8140C18684B
:100A60000090009858680090009853F8140C40F4D7
:100A7000007043F8140C1868400609D41868400642
:100A80005CBF18685FEA406002D418684006F2D57F
:100A900053F8040C08705868800740F12A815868A0
:100AA000800744BF58685FEA807040F1228158682F
:100AB0008007F0D41DE100BF53F8140C20F48060CF
:100AC00043F8140C53F8140C40F4006043F8140C71
:100AD00018680190019858680190019818684007BB
:100AE00009D4186840075CBF18685FEA407002D4F8
:100AF00018684007F2D553F8140C40F4007043F81E
:100B0000140C1868400609D4186840065CBF1868C1
:100B10005FEA406002D418684006F2D553F8040C2E
:100B200008701868400609D4186840065CBF186849
:100B30005FEA406002D418684006F2D553F8040C0E
:100B400048705868800709D55868800744BF5868BE
:100B50005FEA807002D558688007F2D453F8140C0D
:100B600040F4806043F8140C53F8140C20F4006037
:100B7000C3E000BF032AC0F0C2801868032A0290B5
:100B8000029858680290029802D108464EE000BFD1
:100B9000501C10F0030EA2F1040C17D0541E18685C
:100BA000400609D4186840065CBF18685FEA4060D8
:100BB00002D418684006F2D553F8045C0846BEF12A
:100BC000010F00F8015B03D122462BE02BE000BFB0
:100BD000901E1C68640609D41C6864065CBF1C680F
:100BE0005FEA446402D41C686406F2D553F8044CEE
:100BF000BEF1020F4C7003D102310246084612E0EA
:100C0000033A1868400609D4186840065CBF1868A3
:100C10005FEA406002D418684006F2D553F8045CDD
:100C2000C81C8D700146BCF1030F73D219684907C7
:100C300009D4196849075CBF19685FEA417102D499
:100C400019684907F2D553F8141C21F4806143F860
:100C5000141C1968490609D4196849065CBF19684B
:100C60005FEA416102D419684906F2D553F8041CC1
:100C700001701968490709D4196849075CBF1968E8
:100C80005FEA417102D419684907F2D553F8141C80
:100C900041F4007143F8141C1968490609D4196815
:100CA00049065CBF19685FEA416102D419684906C8
:100CB000F2D553F8041C41701968490609D4196823
:100CC00049065CBF19685FEA416102D419684906A8
:100CD000F2D553F8041C81705868800709D558680C
:100CE000800744BF58685FEA807002D55868800763
:100CF000F2D453F8140C40F4806043F8140C03B0A1
:100D0000B0BD00BF53F8045C081DCD70032A014636
:100D10007FF68CAF1868400606D4186840065CBFA2
:100D200018685FEA406031D553F8040C0870186801
:100D3000400609D4186840065CBF18685FEA406046
:100D400002D418684006F2D553F8040C48701868AD
:100D5000400609D4186840065CBF18685FEA406026
:100D600002D418684006F2D553F8040C043A88708F
:100D700018684006C6D4186840065CBF18685FEA69
:100D80004060BFD418684006F2D5BBE7186840063B
:100D9000C0D5C9E710B581B045F21444C4F20004CF
:100DA00054F814CC4CF4807344F8143C2368DB07EB
:100DB00009D12368DB0704BF23685FEAC37302D14C
:100DC0002368DB07F2D054F8043C00F07F0023F0E6
:100DD000FF0343EA400044F8040C2068800709D46C
:100DE000206880075CBF20685FEA807002D42068BA
:100DF0008007F2D52068002A009000986068009073
:100E0000009861D012F0030C20D091F800E054F863
:100E1000043C501E23F0FF03734444F8043C236851
:100E20001B0609D423681B065CBF23685FEA0363C3
:100E300002D423681B06F2D5BCF1010F01F1010EAB
:100E400008D17146042A59D23EE000BF1046042A58
:100E500054D239E09EF800E054F8043C901E23F090
:100E6000FF03734444F8043C23681B0609D4236839
:100E70001B065CBF23685FEA036302D423681B067A
:100E8000F2D5BCF1020F01F1020C03D16146042A34
:100E900034D219E09CF800C054F8043CD01E23F072
:100EA000FF03634444F8043C23681B0609D4236809
:100EB0001B065CBF23685FEA036302D423681B063A
:100EC000F2D50331042A19D254F8140C40F40070FE
:100ED00044F8140C6068800709D56068800744BF37
:100EE00060685FEA807002D560688007F2D401B064
:100EF00010BD00BF002801F10401E5D00A7854F8C4
:100F0000043C23F0FF031A4444F8042C2268120620
:100F10000AD4226812065CBF22685FEA026203D428
:100F200022681206F2D500BF4A7854F8043C23F038
:100F3000FF031A4444F8042C226812060AD42268DB
:100F400012065CBF22685FEA026203D422681206BE
:100F5000F2D500BF8A7854F8043C23F0FF031A440A
:100F600044F8042C226812060AD4226812065CBFD8
:100F700022685FEA026203D422681206F2D500BF3B
:100F8000CA7854F8043C043823F0FF031A4444F8A8
:100F9000042C22681206ADD4226812065CBF2268B7
:100FA0005FEA0262A6D422681206F2D5A2E7000028
:100FB0002DE9F04F0E6896FAA6F2B2FA82F236FAEE
:100FC00002F363D04FF001084FF0030C0CE000BFB8
:100FD000D1E900630768AB4007EA0A073B430360B7
:100FE000013236FA02F351D008FA02F316EA03048A
:100FF000F6D0D1F804E0AEF10103022B94FAA4F389
:101000001AD2B3FA83F6D0F808907500D1E902AB92
:101010000CFA05F329EA03090AFA05F747EA090772
:10102000876047686FEA030A27EA04090BFB04F7A5
:1010300047EA0907476006E0B3FA83F675000CFA41
:1010400005F36FEA030A0F69C368AF4003EA0A03B6
:101050003B43BEF1020FC360BAD1E3B2240AD1F818
:1010600014E094FAA4F4002B08BFB4FA84F64FF00D
:10107000200308BF2423C458B6000F27B740BC4341
:101080000EFA06F72743C750A2E700BF0020BDE8CD
:10109000F08F000044F6D351C1F26201A0FB0101C0
:1010A0004FF0FF3000EB91104EF21001CEF2000134
:1010B000486000208860052008607047024600688C
:1010C000400631D42DE9F04710684FF6BF73D1E9DF
:1010D000009820EA030CD1E902EA4CEA090401F184
:1010E000100744EA0804E0CF44EA0E0444EA0A0484
:1010F000D1E9070325432F43384330431843106099
:101100005068B3F5005F20F0040040EA16405060DC
:10111000BDE8F04704BF888C10610020D16921F43C
:101120000061D161704700BF0120D16921F40061E5
:10113000D161704740F20C01C2F2000108607047B3
:1011400081B04EF21001CEF200010A680130009227
:10115000009A28BF4FF0FF300A68D20300EBE2701C
:1011600078B10A68D20300EBE27050B10A68D2038A
:1011700000EBE27028B10A68D20300EBE2700028AD
:10118000EAD101B0704700002DE9F04F87B04FF071
:10119000000A43F63007CDE904AACDE902AACDE959
:1011A00000AAC4F202073868002440F00400386046
:1011B0003868C4F2020400F004000690069838680B
:1011C0004FF4507940F0800038603868E84600F00D
:1011D0008000069006983868012540F001003860CC
:1011E00038684FF0020B00F001000690069838684E
:1011F00040F002003860386800F00200069006985F
:101200005020C4F81890C4F8180440F60C00C4F23A
:101210000200016821F040610160D4F8001804F573
:10122000006021F04061C4F800188021009141461F
:101230000195CDE902BA0495FFF7BAFE102004F536
:1012400080668DE8210830464146CDE903A5FFF7C9
:10125000AFFE4020CDE900050320CDE9020A30466B
:1012600041460495FFF7A4FE20464146CDE900958E
:10127000CDE902BA0495FFF79BFE386840F0010003
:101280003860386800F0010006900698206820F465
:1012900040602060E06820F44060E06007B0BDE896
:1012A000F08F0000F0B591B006AC20462821FFF782
:1012B00066F9002543F63000CDE90455CDE9025525
:1012C000CDE90055C4F20200416943F2040641F43D
:1012D000805141614169C4F2010601F480511091CD
:1012E00010990168022741F0010101600068694618
:1012F00000F0010010901098A02000900320CDE98C
:101300000205052005904CF6FC70304401970495C9
:10131000FFF74EFE4FF4827007A9A1C101200A9089
:101320004FF400700B901020CDE90C050A200F90AF
:10133000301F214606950E95FFF7C0FE306820F05D
:101340001000306011B0F0BDFEE70000FEE70000C5
:10135000704700007047000070470000B0B543F6CA
:101360000005C4F20205D5F80004022161F3020071
:10137000C5F80004D5F8000400F00700022811D0D9
:10138000D5F8000400F0070002280BD0D5F80004BF
:1013900000F00700022805D0D5F8000400F007008F
:1013A0000228E7D147F20400C4F2000050F8041C00
:1013B000022262F38F3140F8041C296841F4802135
:1013C0002960296841F4803129602968890309D49A
:1013D000296889035CBF29685FEA813102D42968E2
:1013E0008903F2D5696848F20002CFF6BF72114056
:1013F00041F20452C0F2400211436960696821F46D
:1014000040316960296841F080712960296889014B
:101410000AD4296889015CBF29685FEA811103D475
:1014200029688901F2D500BF0168490409D401681F
:1014300049045CBF01685FEA414102D40168490484
:10144000F2D5A868042120F0F000A860A86861F334
:101450008C20A860A868022120F46040A860A868D9
:1014600061F30100A86000BFA86800F00C00082824
:101470000ED0A86800F00C00082809D0A86800F079
:101480000C00082804D0A86800F00C000828EBD154
:101490004BF60054C0F201542046FFF7FBFD2046F6
:1014A000FFF748FED5F88C0020F08070C5F88C005E
:1014B000B0BD00004EF68850CEF20000016841F445
:1014C0007001016070470000FEE700002DE9F04167
:1014D0008AB040F27006C2F200063078411E002841
:1014E0004FF0FF3008BF012150FA81F0062831701B
:1014F00000F2E181DFE800F004A2446628CAF000AF
:1015000040F2D404C2F20004204600F085FE45F209
:101510008650C0F60000C4F8040245F64840C0F604
:10152000000090E88E00007C6D468DE80E008DF87E
:1015300010002046002100222B46039700F0FAFFFE
:1015400043F2FE50F268A2E140F2D404C2F2000479
:10155000204600F061FE45F28650C0F60000C4F857
:10156000040246F64300C6F26530009047F26B3045
:10157000C6F6755001903A20ADF808007DE100BF35
:1015800040F2D404C2F20004204600F045FE45F2C9
:101590008650C0F60000C4F8040246F67400C0F29B
:1015A0003A00019046F24C50C6F26E706D460090C3
:1015B0002046002100222B4600F0BCFF43F2FE50E3
:1015C000328964E140F23030C2F20000B0F84400E9
:1015D00040F2D404C2F2000445BA204600F01CFEDA
:1015E00045F28650C0F60000C4F8040246F25010DE
:1015F000C6F67940009046F26F10C3F66420019061
:1016000000206E468DF80800204600210022334657
:1016100000F090FF43F2FE50C0F6000045F609418D
:10162000C4F80402C0F6000130462A46FEF740FE28
:10163000204600211422334638E100BF40F2D40492
:10164000C2F20004204600F0E7FD45F28650C0F6E5
:101650000000C4F8040244F24D10C2F243000090AE
:1016600046F65370C7F27520019046F26350C0F2FF
:101670003A006D4602902046002100222B4600F0E1
:1016800059FF43F2FE50326901E100BF7088B18812
:1016900040F2D404C2F20004884240F0D1802046D7
:1016A00000F0BAFD45F28650C0F60000C4F804020E
:1016B00046F64300C6F26530009047F26B30C6F63E
:1016C0007550019042F23A00C4F64F30029000206B
:1016D0008DF80C00D1E000BF0020ADF80000D6E985
:1016E000030140F2303700BACDF8020008BA318960
:1016F000C2F20007CDF8060008BA3B69000CADF84D
:101700000A0097E81700079304AB16C3B98AE846A6
:101710000390ADF8201051204146222208F1020525
:10172000FFF738FB0520FFF70BFD4FF40050ADF835
:10173000000007F1160128462022FEF7DBFE5120AB
:1017400041462222FFF726FB0520FFF7F9FC4FF464
:101750008040ADF80000D7F83600D7F83A10CDF841
:101760000200B088D7F83E2000BAD7F84230000C0B
:10177000CDF80610CDF80A20ADF8120051204146F0
:101780001422CDF80E30FFF705FB0520FFF7D8FC3B
:1017900040F2D404C2F20004204600F03DFD45F6BC
:1017A0007C40C0F6000090E88E00008A45F2865624
:1017B0006D46C0F600068DE80E00ADF8100020461C
:1017C000002100222B46C4F80462039700F0B2FE09
:1017D00045F61040C0F6000090E88E00C4F80462A0
:1017E0008DE88E00018A807CADF810108DF8120013
:1017F000204600210F222B4600F09CFE1824C4F244
:1018000002044FF4801580264FF000776420C4F85E
:101810000054C4F800682760FFF792FC1020C4F859
:1018200000044FF40070C4F8006820606420FFF7E3
:1018300087FCC4F80054C4F80068276038E000BF93
:10184000204600F0E9FC45F28650C0F60000C4F8DE
:10185000040246F64300C6F26530009047F26B3052
:10186000C6F67550019042F23A00C5F2452002904A
:1018700044F65270C0F2520003906D46204600219B
:1018800000222B4600F056FE43F2FE50B288C0F60E
:10189000000045F60941C4F80402C0F600012846DC
:1018A000FEF706FD2046002114222B4600F042FEE2
:1018B0006420FFF745FC0AB0BDE8F0812DE9F04156
:1018C0008AB040F27006C2F200063078411C072848
:1018D00088BF0721481E0628317000F2E281DFE848
:1018E00000F005A3456729CBF10000BF40F2D40406
:1018F000C2F20004204600F08FFC45F28650C0F68C
:101900000000C4F8040245F64840C0F6000090E824
:101910008E00007C6D468DE80E008DF8100020468C
:10192000002100222B46039700F004FE43F2FE50F4
:10193000F268A2E140F2D404C2F20004204600F0B2
:101940006BFC45F28650C0F60000C4F8040246F66F
:101950004300C6F26530009047F26B30C6F6755012
:1019600001903A20ADF808007DE100BF40F2D404B8
:10197000C2F20004204600F04FFC45F28650C0F64B
:101980000000C4F8040246F67400C0F23A00019068
:1019900046F24C50C6F26E706D4600902046002113
:1019A00000222B4600F0C6FD43F2FE50328964E16E
:1019B00040F23030C2F20000B0F8440040F2D404EB
:1019C000C2F2000445BA204600F026FC45F28650DB
:1019D000C0F60000C4F8040246F25010C6F6794082
:1019E000009046F26F10C3F66420019000206E460E
:1019F0008DF80800204600210022334600F09AFDB1
:101A000043F2FE50C0F6000045F60941C4F8040256
:101A1000C0F6000130462A46FEF74AFC2046002167
:101A20001422334638E100BF40F2D404C2F200046D
:101A3000204600F0F1FB45F28650C0F60000C4F8E5
:101A4000040244F24D10C2F24300009046F6537077
:101A5000C7F27520019046F26350C0F23A006D461D
:101A600002902046002100222B4600F063FD43F245
:101A7000FE50326901E100BF7088B18840F2D404A1
:101A8000C2F20004884240F0D180204600F0C4FB3E
:101A900045F28650C0F60000C4F8040246F6430042
:101AA000C6F26530009047F26B30C6F67550019073
:101AB00042F23A00C4F64F30029000208DF80C003C
:101AC000D1E000BF0020ADF80000D6E9030140F2EC
:101AD000303700BACDF8020008BA3189C2F20007E7
:101AE000CDF8060008BA3B69000CADF80A0097E88B
:101AF0001700079304AB16C3B98AE8460390ADF804
:101B0000201051204146222208F10205FFF742F938
:101B10000520FFF715FB4FF40050ADF8000007F16A
:101B2000160128462022FEF7E5FC512041462222DC
:101B3000FFF730F90520FFF703FB4FF48040ADF8C5
:101B40000000D7F83600D7F83A10CDF80200B08878
:101B5000D7F83E2000BAD7F84230000CCDF8061076
:101B6000CDF80A20ADF81200512041461422CDF8DC
:101B70000E30FFF70FF90520FFF7E2FA40F2D40428
:101B8000C2F20004204600F047FB45F67C40C0F658
:101B9000000090E88E00008A45F286566D46C0F639
:101BA00000068DE80E00ADF810002046002100224E
:101BB0002B46C4F80462039700F0BCFC45F61040C5
:101BC000C0F6000090E88E00C4F804628DE88E0034
:101BD000018A807CADF810108DF81200204600219B
:101BE0000F222B4600F0A6FC1824C4F202044FF486
:101BF000801580264FF000776420C4F80054C4F8A4
:101C000000682760FFF79CFA1020C4F800044FF426
:101C10000070C4F8006820606420FFF791FAC4F8EF
:101C20000054C4F80068276038E000BF204600F088
:101C3000F3FA45F28650C0F60000C4F8040246F6F6
:101C40004300C6F26530009047F26B30C6F675501F
:101C5000019042F23A00C5F24520029044F65270DB
:101C6000C0F2520003906D462046002100222B4610
:101C700000F060FC43F2FE50B288C0F6000045F66A
:101C80000941C4F80402C0F600012846FEF710FB23
:101C90002046002114222B4600F04CFC6420FFF764
:101CA0004FFA0AB0BDE8F0812DE9F04186B045F267
:101CB0001440C4F2000050F8141C41F4807140F844
:101CC000141C0168C90709D10168C90704BF01686C
:101CD0005FEAC17102D10168C907F2D050F8041C53
:101CE000902262F3070140F8041C0168890709D4B7
:101CF000016889075CBF01685FEA817102D40168ED
:101D00008907F2D501680191019941680191019912
:101D100050F8041C21F0FF0140F8041C016809067A
:101D200009D4016809065CBF01685FEA016102D459
:101D300001680906F2D550F8141C41F4007140F80E
:101D4000141C4168890709D54168890744BF416867
:101D50005FEA817102D541688907F2D401A9482060
:101D60000222FEF73DFE9DF804009DF8051047098C
:101D700041EA002140F2000040F27008C2F2000087
:101D800040F2E0244E09C2F20008D0E901120388B3
:101D9000C2F2000408F11C05204688F8607088F83B
:101DA00061600095FEF7FAFC00236FF0130001213B
:101DB0002218958A14302DBA03EB1543DD03D58A1A
:101DC00048BF11FA83F32DBA03EB1543DD03158BDE
:101DD00048BF11FA83F32DBA03EB1543DD03558B8E
:101DE00048BF11FA83F32DBA03EB1543DD03958B3E
:101DF00048BF11FA83F32DBA03EB1543DD03D58BEE
:101E000048BF11FA83F32DBA03EB1543DD03158C9C
:101E100048BF11FA83F32DBA03EB1543DD03558C4C
:101E200048BF11FA83F32DBA03EB1543DD03958CFC
:101E300048BF11FA83F32DBAD28C03EB1543DD03AF
:101E400048BF11FA83F312BA03EB1243DA0348BF17
:101E500011FA83F33C28ABD3F0B240EA0724180C04
:101E600000EE106A10FA83F0B8EE400AB4EE001AE1
:101E700000EB104040F2D40520EE010AC043C2F24C
:101E80000005BCEEC00AA8F80200284610EE106A51
:101E900000F0C2F945F28650C0F6000045F6EA317E
:101EA00001AFC5F80402C0F6000138463246FEF71D
:101EB000FFF92846002100223B4600F03BFB43F29D
:101EC000FE50C0F60000C5F8040208A138462246BC
:101ED000FEF7EEF92846002114223B4600F02AFBCB
:101EE0006420FFF72DF906B0BDE8F08153616D70F5
:101EF0006C65643A20252E34580000002DE9F04F1F
:101F000090B00791A3F1800111F1610F0B92C0F025
:101F10007481D0F8044290F80022617890F8086249
:101F200094F800C094F802A094F803E05518B54264
:101F300011D990F801620022564480F8002280F8FE
:101F4000016290F80982A578F6B2A8EB0505B542C2
:101F5000D8BF80F80122203B03FB0C46BAF1000FEA
:101F6000357918BF002900F0458103FB0CF2731D81
:101F700005934B1E069301F0030301F0FC010F9142
:101F80001119053103914FEA8E010E9107990490C2
:101F9000084402900B980195A1F17D04A1F17E0502
:101FA000A1F18008A1F17F0907014FF0000B0A930E
:101FB000CDF820A009E000BF115400BF0BF1010BC8
:101FC000D34507F1100700F011810B980BEB0001CE
:101FD0002029F3D80122099101F0070102FA01FC3E
:101FE00006990BF0070002FA00F003296FEA0C01D2
:101FF000CDE90C7128D200220A990C9F0029DDE955
:1020000008A1DBD0059E0B46CBF3C4010E444FF66E
:102010008071C7F6FF7101EA031302FB0EF1099606
:10202000715C079E084202EB060AAAF1800100F0EB
:10203000818011F17F0FC0F08980049F4AEA03017B
:102040007E5C46EA0C0680E00399029A01EBDB060F
:102050004FF68071C7F6FF71394002EB010A00228A
:1020600007E000BFCF700F99043291420E990E44E1
:10207000C2D03178084208EB020107D011F17F0F7E
:102080000DD31AF8021041EA0C0106E011F17F0F9E
:1020900005D31AF802100D9B19400AF8021016F821
:1020A0000E10084209EB020108D011F17F0F0ED388
:1020B0000AEB02014F7847EA0C0707E011F17F0FA6
:1020C00005D30AEB02014F780D9B1F404F7016F8A5
:1020D0001E10084205EB020108D011F17F0F0ED34C
:1020E0000AEB02018F7847EA0C0707E011F17F0F36
:1020F00005D30AEB02018F780D9B1F408F700EEB0A
:102100004E01715C084204EB020109D011F17F0F0E
:10211000A9D30AEB0201CF7847EA0C07A2E700BF78
:1021200011F17F0F9FD30AEB0201CF780D9B1F4067
:1021300098E700BF11F17F0F08D3049F4AEA03011B
:102140007E5C9A460D9B1E4053467E540A99DDF8EC
:1021500020A00C9F01293FF431AF511C099F01FBC6
:102160000EF6BF5D079E38420E44A6F1800109D0ED
:1021700011F17F0F12D3049946EA0307CE5D46EAB8
:102180000C060AE011F17F0F08D3049946EA030711
:10219000CE5D00930D9B1E40009BCE550A990C9F6F
:1021A00002293FF40BAF911C099E01FB0EF2B65CB5
:1021B000079A30420A44A2F180000BD010F17F0F41
:1021C000FFF4FCAE42EA0300049A115C41EA0C0100
:1021D000F2E600BF10F17F0FFFF4F0AE42EA030019
:1021E000049A0D9B115C1940E6E600BF0498019D1E
:1021F00090F80022511980F8001210B0BDE8F08F5D
:10220000002840F218404FF04001C4F2020008BF1D
:102210004FF480010160704710B54FF4007104461F
:10222000FEF7ADF92046BDE8104000F0B9B9000056
:10223000F0B581B018250446C4F2020543F2080641
:102240004FF480070120C4F201062F60FEF778FFEB
:10225000402028600520FEF773FF4FF08070C5F81E
:10226000007428603068000609D53068000644BF55
:1022700030685FEA006002D530680006F2D4AE2014
:1022800030713068800709D4306880075CBF3068DF
:102290005FEA807002D430688007F2D530680006AB
:1022A00009D53068000644BF30685FEA006002D597
:1022B00030680006F2D4A22030713068800709D45B
:1022C000306880075CBF30685FEA807002D4306895
:1022D0008007F2D53068000609D53068000644BF93
:1022E00030685FEA006002D530680006F2D4A020B2
:1022F00030713068800709D4306880075CBF30686F
:102300005FEA807002D430688007F2D5306800063A
:1023100009D53068000644BF30685FEA006002D526
:1023200030680006F2D4C82030713068800709D4C4
:10233000306880075CBF30685FEA807002D4306824
:102340008007F2D53068000609D53068000644BF22
:1023500030685FEA006002D530680006F2D42220BF
:1023600030713068800709D4306880075CBF3068FE
:102370005FEA807002D430688007F2D530680006CA
:1023800009D53068000644BF30685FEA006002D5B6
:1023900030680006F2D42F2030713068800709D4ED
:1023A000306880075CBF30685FEA807002D43068B4
:1023B0008007F2D53068000609D53068000644BFB2
:1023C00030685FEA006002D530680006F2D4402031
:1023D00030713068800709D4306880075CBF30688E
:1023E0005FEA807002D430688007F2D5306800065A
:1023F00009D53068000644BF30685FEA006002D546
:1024000030680006F2D4AF2030713068800709D4FC
:10241000306880075CBF30685FEA807002D4306843
:102420008007F2D53068000609D53068000644BF41
:1024300030685FEA006002D530680006F2D481207F
:1024400030713068800709D4306880075CBF30681D
:102450005FEA807002D430688007F2D530680006E9
:1024600009D53068000644BF30685FEA006002D5D5
:1024700030680006F2D4172030713068800709D424
:10248000306880075CBF30685FEA807002D43068D3
:102490008007F2D53068000609D53068000644BFD1
:1024A00030685FEA006002D530680006F2D4A620EA
:1024B00030713068800709D4306880075CBF3068AD
:1024C0005FEA807002D430688007F2D53068000679
:1024D0000AD53068000644BF30685FEA006003D563
:1024E00030680006F2D400BF306880070AD4306834
:1024F00080075CBF30685FEA807003D43068800773
:10250000F2D500BF3068000609D53068000644BF28
:1025100030685FEA006002D530680006F2D44020DF
:10252000C5F80004204640F20221FEF728F801B069
:10253000F0BD00002DE9F04F81B0064680F8001292
:10254000D0F8040286F8012290F8019018469046CF
:102550000D461F46FDF7AFFF01281DDB0446A9F11C
:10256000010A5FFA88F94FF0000B08E086F800B224
:102570005544013C86F8005286F801820CD017F8C9
:10258000013B0A2BF2D0E9B230464A46FFF7B6FCCF
:10259000304600F005F8EBE7012001B0BDE8F08F10
:1025A000B0B540F2184EC4F2020E43F208024FF4E6
:1025B00080014FF6004CC4F20102CEF80010CFF6B5
:1025C000FF7C4FF080714EF80C101168090609D598
:1025D0001168090644BF11685FEA016102D51168FC
:1025E0000906F2D400211171116889070AD4116813
:1025F00089075CBF11685FEA817103D4116889079C
:10260000F2D500BF1168090609D51168090644BF53
:1026100011685FEA016102D511680906F2D4102140
:1026200011711168890709D4116889075CBF1168A5
:102630005FEA817102D411688907F2D51168090631
:1026400009D51168090644BF11685FEA016102D526
:1026500011680906F2D4B02111711168890709D4F3
:10266000116889075CBF11685FEA817102D4116843
:102670008907F2D5116809060AD51168090644BF11
:1026800011685FEA016103D511680906F2D400BF41
:10269000116889070AD4116889075CBF11685FEA6D
:1026A000817103D411688907F2D500BF116809064A
:1026B00009D51168090644BF11685FEA016102D5B6
:1026C00011680906F2D44021CEF800104FF48001C1
:1026D000CEF800104FF480714EF80C101168090606
:1026E00009D51168090644BF11685FEA016102D586
:1026F00011680906F2D4002103E000BF04318029EB
:1027000078D0435C137113689B0709D413689B0747
:102710005CBF13685FEA837302D413689B07F2D52A
:1027200013681B060AD513681B0644BF13685FEACB
:10273000036303D513681B06F2D400BF43185C780B
:1027400014711468A40709D41468A4075CBF146842
:102750005FEA847402D41468A407F2D514682406CE
:102760000AD51468240644BF14685FEA046403D5DC
:1027700014682406F2D400BF9C7814711468A4076E
:102780000AD41468A4075CBF14685FEA847403D495
:102790001468A407F2D500BF146824060AD514688B
:1027A000240644BF14685FEA046403D51468240651
:1027B000F2D400BFDB78137113689B070AD4136847
:1027C0009B075CBF13685FEA837303D413689B079E
:1027D000F2D500BF13681B067FF590AF13681B0688
:1027E00044BF13685FEA03637FF588AF13681B0675
:1027F000F0D483E7116889070AD4116889075CBFA0
:1028000011685FEA817103D411688907F2D500BFAE
:102810001168090609D51168090644BF11685FEA05
:10282000016102D511680906F2D44021CEF80010EA
:102830004FF48001CEF800104FF080714EF80C106C
:102840001168090609D51168090644BF11685FEAD5
:10285000016102D511680906F2D4002111711168D5
:10286000890709D4116889075CBF11685FEA817123
:1028700002D411688907F2D51168090609D51168D3
:10288000090644BF11685FEA016102D511680906B3
:10289000F2D4102111711168890709D411688907D0
:1028A0005CBF11685FEA817102D411688907F2D5B3
:1028B0001168090609D51168090644BF11685FEA65
:1028C000016102D511680906F2D4B12111711168B4
:1028D000890709D4116889075CBF11685FEA8171B3
:1028E00002D411688907F2D5116809060AD5116862
:1028F000090644BF11685FEA016103D51168090642
:10290000F2D400BF116889070AD4116889075CBF37
:1029100011685FEA817103D411688907F2D500BF9D
:102920001168090609D51168090644BF11685FEAF4
:10293000016102D511680906F2D44021CEF80010D9
:102940004FF48001CEF800104FF480714EF80C1057
:102950001168090609D51168090644BF11685FEAC4
:10296000016102D511680906F2D400F1800300214B
:1029700003E000BF0431802978D05C5C14711468D6
:10298000A40709D41468A4075CBF14685FEA8474C0
:1029900002D41468A407F2D5146824060AD5146872
:1029A000240644BF14685FEA046403D5146824064F
:1029B000F2D400BF5C18657815711568AD0709D4AD
:1029C0001568AD075CBF15685FEA857502D41568A8
:1029D000AD07F2D515682D060AD515682D0644BF3A
:1029E00015685FEA056503D515682D06F2D400BFAA
:1029F000A57815711568AD070AD41568AD075CBFD9
:102A000015685FEA857503D41568AD07F2D500BF78
:102A100015682D060AD515682D0644BF15685FEAAE
:102A2000056503D515682D06F2D400BFE47814714E
:102A30001468A4070AD41468A4075CBF14685FEA8A
:102A4000847403D41468A407F2D500BF1468240664
:102A50007FF590AF1468240644BF14685FEA0464ED
:102A60007FF588AF14682406F0D483E711688907DE
:102A70000AD4116889075CBF11685FEA817103D4C9
:102A800011688907F2D500BF1168090609D51168D8
:102A9000090644BF11685FEA016102D511680906A1
:102AA000F2D44021CEF800104FF48001CEF800108F
:102AB0004FF080714EF80C101168090609D51168A5
:102AC000090644BF11685FEA016102D51168090671
:102AD000F2D4002111711168890709D4116889079E
:102AE0005CBF11685FEA817102D411688907F2D571
:102AF0001168090609D51168090644BF11685FEA23
:102B0000016102D511680906F2D410211171116812
:102B1000890709D4116889075CBF11685FEA817170
:102B200002D411688907F2D51168090609D5116820
:102B3000090644BF11685FEA016102D51168090600
:102B4000F2D4B22111711168890709D4116889077B
:102B50005CBF11685FEA817102D411688907F2D500
:102B6000116809060AD51168090644BF11685FEAB1
:102B7000016103D511680906F2D400BF1168890705
:102B80000AD4116889075CBF11685FEA817103D4B8
:102B900011688907F2D500BF1168090609D51168C7
:102BA000090644BF11685FEA016102D51168090690
:102BB000F2D44021CEF800104FF48001CEF800107E
:102BC0004FF480714EF80C101168090609D5116890
:102BD000090644BF11685FEA016102D51168090660
:102BE000F2D400F58073002103E000BF0431802996
:102BF00078D05C5C14711468A40709D41468A40725
:102C00005CBF14685FEA847402D41468A407F2D528
:102C1000146824060AD51468240644BF14685FEAC1
:102C2000046403D514682406F2D400BF5C186578E8
:102C300015711568AD0709D41568AD075CBF156837
:102C40005FEA857502D41568AD07F2D515682D06C3
:102C50000AD515682D0644BF15685FEA056503D5DA
:102C600015682D06F2D400BFA57815711568AD075B
:102C70000AD41568AD075CBF15685FEA857503D493
:102C80001568AD07F2D500BF15682D060AD5156881
:102C90002D0644BF15685FEA056503D515682D0646
:102CA000F2D400BFE47814711468A4070AD414683D
:102CB000A4075CBF14685FEA847403D41468A40793
:102CC000F2D500BF146824067FF590AF146824067F
:102CD00044BF14685FEA04647FF588AF1468240673
:102CE000F0D483E7116889070AD4116889075CBFAB
:102CF00011685FEA817103D411688907F2D500BFBA
:102D00001168090609D51168090644BF11685FEA10
:102D1000016102D511680906F2D44021CEF80010F5
:102D20004FF48001CEF800104FF080714EF80C1077
:102D30001168090609D51168090644BF11685FEAE0
:102D4000016102D511680906F2D4002111711168E0
:102D5000890709D4116889075CBF11685FEA81712E
:102D600002D411688907F2D51168090609D51168DE
:102D7000090644BF11685FEA016102D511680906BE
:102D8000F2D4102111711168890709D411688907DB
:102D90005CBF11685FEA817102D411688907F2D5BE
:102DA0001168090609D51168090644BF11685FEA70
:102DB000016102D511680906F2D4B32111711168BD
:102DC000890709D4116889075CBF11685FEA8171BE
:102DD00002D411688907F2D5116809060AD511686D
:102DE000090644BF11685FEA016103D5116809064D
:102DF000F2D400BF116889070AD4116889075CBF43
:102E000011685FEA817103D411688907F2D500BFA8
:102E10001168090609D51168090644BF11685FEAFF
:102E2000016102D511680906F2D44021CEF80010E4
:102E30004FF48001CEF800104FF480714EF80C1062
:102E40001168090609D51168090644BF11685FEACF
:102E5000016102D511680906F2D400F5C0700021A5
:102E600003E000BF0431802978D0435C13711368FC
:102E70009B0709D413689B075CBF13685FEA8373E1
:102E800002D413689B07F2D513681B060AD5136892
:102E90001B0644BF13685FEA036303D513681B0670
:102EA000F2D400BF43185D7815711568AD0709D4D9
:102EB0001568AD075CBF15685FEA857502D41568B3
:102EC000AD07F2D515682D060AD515682D0644BF45
:102ED00015685FEA056503D515682D06F2D400BFB5
:102EE0009D7815711568AD070AD41568AD075CBFEC
:102EF00015685FEA857503D41568AD07F2D500BF84
:102F000015682D060AD515682D0644BF15685FEAB9
:102F1000056503D515682D06F2D400BFDB78137163
:102F200013689B070AD413689B075CBF13685FEAAA
:102F3000837303D413689B07F2D500BF13681B0685
:102F40007FF590AF13681B0644BF13685FEA036305
:102F50007FF588AF13681B06F0D483E710688007FD
:102F60000AD4106880075CBF10685FEA807003D4E1
:102F700010688007F2D500BF1068000609D51068F8
:102F8000000644BF10685FEA006002D510680006C2
:102F9000F2D44020CEF80000B0BD00008EB043F661
:102FA0004001C4F20201486840F2007240F48040DF
:102FB00048604868C0F2FA5200F4804002900298DB
:102FC000086840F6180A40F080500860086840F22F
:102FD000180800F08050029002984EF60C50CEF285
:102FE00000000168C4F2020A11434FF6FF72C0F2FA
:102FF000FA521140C4F202080160FEF7AFF9FEF781
:10300000C3F8FEF74FF940F2D404C2F200044FF4C3
:103010000250A4F8080243F6A260C0F60000C4F80B
:10302000040243F20000C4F20100016841F04001D3
:1030300001600120FFF7E4F80520FEF781F8002089
:103040000025FFF7DDF82046FFF7F2F82046FFF7EE
:10305000E3F814264FF480174FF400094FF0100BDB
:103060004FF000740EE000BF4FF40070C8F800008D
:10307000681CC1B2CD1F18BF05463220FEF760F8AC
:10308000013E37D0E8B20628F2D8DFE800F00B1F87
:10309000111905252B0000BFC8F80074CAF800906C
:1030A000E2E700BF8020C8F80074CAF80000DBE740
:1030B0008020C8F80040C8F800B4CAF80000D7E77C
:1030C000C8F80074CAF8009011E000BFCAF8009078
:1030D000C8F800B4C8E700BFC8F800B4CAF8009048
:1030E00005E000BF8020C8F80074CAF80000C8F8E6
:1030F0000040BDE74FF0100980254FF40076C8F876
:103100000094CAF80050C8F80060D8F8E80302211B
:1031100061F31140C8F8E8034FF60C40CFF6FF709A
:103120005AF80020042363F303024AF80020D8F879
:10313000EC23012742F48072C8F8EC23D8F8F4237A
:103140000DF1080B67F31142C8F8F423D8F8E8230F
:1031500040F2700461F39342C8F8E8235AF8001073
:10316000542263F307114AF80010D8F8EC0343F631
:10317000400140F40070C8F8EC03D8F8F403C4F23E
:10318000020167F39340C8F8F4030868002740F48D
:10319000001008600868C2F2000400F400100290F9
:1031A000029845F20040C4F200000168B4EE008AC3
:1031B00021F001010160016821F01A0101604168FC
:1031C00062F306014160016A552262F30601016261
:1031D000C1694CF6FF72914301F5D271C16101687A
:1031E00041F0010101600BF1020001900BF10C00B4
:1031F000009013E04FF480102770C8F80004CAF85C
:103200000050C8F80060FEF74FFDC820C8F80094D1
:10321000CAF80050C8F80060FDF792FFD8F8F8032C
:103220008006E7D45AF8080C80071FD45AF8080C17
:10323000C00740F09F8058F8080CC00600F12681B6
:10324000D8F8F803C007E9D04FF40000C8F800949C
:10325000CAF800004FF00070C8F8000000200021FC
:1032600000F05CF90020FEF731F9CEE70DF13605EC
:103270005020294602222770ADF83670FDF78AFDEE
:103280000520FDF75DFF50200BA90A22FDF7A8FBE2
:103290004FF48040ADF83600502029460222FDF759
:1032A00079FD0520FDF74CFF502059461222FDF70D
:1032B00097FB0B980C99BDF8342000BA09BAC4E901
:1032C000030110BA000C2081BDF81600BDF81810DB
:1032D00040F23032C2F20002A2F8440008BA000CF8
:1032E000A0804FF40000CAF80000C8F80094C8F8A5
:1032F0000060B2F8440040F2D40647BA00EE107AFB
:10330000B8EEC00A20EE080AC2F20006BCEEC00AFF
:10331000304610EE109AFEF77FFF45F28650C0F659
:10332000000045F6EA31C6F804025846C0F600012E
:103330004A4680254FF01009FCF7BAFF30460021BD
:1033400000225B46FFF7F6F843F2FE50C0F600009D
:1033500045F6FC31C6F804025846C0F600013A466C
:103360000027FCF7A5FF30464FF400760021142219
:1033700085E000BF40F20002C2F20002D2E9010182
:10338000277000BACDF80A0008BA1188CDF80E00EF
:1033900008BAADF80870000C04F11C07ADF8120073
:1033A0008FCF009E86E80F00208E5946B0825020B5
:1033B000222237610027FDF7EDFC0520FDF7C0FE56
:1033C000019E4FF40050ADF8080004F13201304680
:1033D0002022FDF78FF8502059462222FDF7DAFC13
:1033E0000520FDF7ADFE4FF48040ADF80800D4F89D
:1033F0005200D4F8561030606088D4F85A2000BAD1
:10340000D4F85E30000C7160B260ADF81A00502044
:1034100059461422F360FDF7BDFC0520FDF790FE30
:1034200040F2D4064FF00070C2F20006C8F8000067
:103430003046C8F80094CAF80050FEF7EDFE45F299
:103440008650C0F60000C6F8040247F25720C7F2C3
:103450006940029046F27450C2F26E00039046F248
:103460007010C6F66330049046F26B50C0F27400E0
:10347000CDF8130030464FF40076002100225B4661
:10348000FFF758F86420FDF75BFEBEE64FF48010AE
:10349000C8F800044FF40000CAF8000050200DF1F5
:1034A00036010222C8F80060ADF83670FDF772FCF4
:1034B0000520FDF745FE50200BA90A22FDF790FAE2
:1034C0004FF48040ADF8360050200DF13601022255
:1034D000FDF760FC0520FDF733FE5020594612220F
:1034E000FDF77EFA0B980C99BDF8342000BA09BAA2
:1034F000C4E9030110BA000C2081BDF81600BDF824
:10350000181040F23032C2F20002A2F8440008BAA9
:10351000000CA0800020FEF7D1F976E670B588B0E7
:103520000DF11E060C4605468DF81E108DF81F0085
:10353000502031460222FDF72DFC0520FDF700FE4C
:1035400005A950200A22FDF74BFA05F140008DF83D
:103550001F005020314602228DF81E40FDF71AFC54
:103560000520FDF7EDFD0DF1020150201222FDF7BF
:1035700037FA0598069940F2700200BAC2F20002CA
:1035800009BAC2E90301BDF81C00BDF8101040F2F1
:103590003033C2F20003A3F8441000BABDF8121091
:1035A000000C108108BA000C908008B070BD303853
:1035B0000A2801D20120704700207047F1EE100A5E
:1035C0004FF6FF71C0F2C03120EA010040F04070B8
:1035D000E1EE100A7047303132333435363738393E
:1035E000414243444546403058003031323334354F
:1035F0003637383961626364656640307800170B8E
:103600000B020600000000000000000000000000A7
:103610000000000000000000000200007F01000028
:10362000000000000000000000000000000000009A
:103630000307000000070000000000000000000079
:1036400000000000000000072000A4017C00A7018A
:103650007C0027002400000000000000000006009D
:1036600000CE001101FF031101E200000000000084
:1036700000000000000A00000E0011001101CE0041
:103680003800E60011011001E0000000080000E031
:10369000001E0111012901C600A000000100000068
:1036A0000000000200000700000000000000000011
:1036B00000000000000000000000040000F8000608
:1036C00003010400000000000000000000000000F2
:1036D0000004000001040603F800000000000000E0
:1036E000000000000000000005000000005000384D
:1036F0000050000000000000000000000000000674
:10370000000020002000F800200020000000000041
:1037100000000000000002000000070000000000A0
:103720000000000000000000000000000003200076
:103730002000200000000000000000000000000049
:103740000000000002000000010000000000000076
:1037500000000000000000000000000380017C0069
:103760000300000000000000000000000000000056
:103770000000060000FE00010101010101FE000041
:10378000000000000000000000040000040002002F
:10379000FF01000000000000000000000000000029
:1037A00006000002018101410131010E010000000B
:1037B000000000000000000600008200010111016D
:1037C0001101EE00000000000000000000000600F3
:1037D00000600058004600FF0140000000000000AB
:1037E00000000000000600009C000B010901090117
:1037F000F10000000000000000000000060000FED4
:1038000000110109010901F20000000000000000A0
:103810000000000600000100C1013900070001009E
:1038200000000000000000000000060000EE001193
:103830000111011101EE0000000000000000000075
:10384000000600009E00210121011101FE00000080
:103850000000000000000000020000040100000061
:103860000000000000000000000000000000000256
:10387000000004070000000000000000000000003D
:1038800000000000000006000010002800280028AA
:103890000044000000000000000000000006480096
:1038A00048004800480048004800000000000000B0
:1038B0000000000006000044002800280028001036
:1038C00000000000000000000000000600000600EC
:1038D0000100610111000E00000000000000000066
:1038E00000000B0000F0011802CC0424051405F4BC
:1038F0000504058C05F80400020800008001700032
:103900002E0021002E007000800100000000000049
:10391000070000FF011101110111011101FE00005A
:10392000000000000000000800007C00820001018F
:1039300001010101820044000000000000000800B5
:1039400000FF01010101010101010182007C000071
:103950000000000000070000FF011101110111012A
:10396000110111010000000000000000060000FF2E
:103970000111001100110001000000000000000012
:103980000000000800007C0082000101010111011B
:1039900092007400000000000000080000FF011009
:1039A000001000100010001000FF010000000000D7
:1039B00000020000FF010000000000000000000005
:1039C0000000000000000000060000C00000010030
:1039D000010001FF000000000000000000000008DE
:1039E0000000FF01200010002800440082000101B7
:1039F000000000000000070000FF010001000100BE
:103A000001000100010000000000000000080000AB
:103A1000FF0106007800800178000600FF01000029
:103A200000000000080000FF0102000C0010006010
:103A3000008000FF010000000000000800007C0082
:103A4000820001010101010182007C0000000000F0
:103A50000000070000FF0111001100110011000E0D
:103A60000000000000000000000800007C00820050
:103A700001014101410182007C01000000000000C1
:103A8000080000FF011100110011003100D1000EEB
:103A900001000000000000070000CE00110111012C
:103AA00011011101E6000000000000000000070104
:103AB0000001000100FF0101000100010000000001
:103AC00000000000000800007F00800000010001ED
:103AD000000180007F0000000000000008000003DB
:103AE000001C006000800160001C0003000000005A
:103AF0000000000B07007800800170000E0001003C
:103B00000E00700080017C0003000800000101C667
:103B100000280010002800C600010100000000007D
:103B200000080000010006000800F001080006007F
:103B30000100000000000000080000000181016198
:103B40000111010D0103010101000000000000034B
:103B50000000FF070104000000000000000000005A
:103B60000000000000000303007C00800100000052
:103B7000000000000000000000000000000201043E
:103B8000FF0700000000000000000000000000002F
:103B9000000000000510000E0001000E00100000E3
:103BA000000000000000000000000007000200020A
:103BB00000020002000200020002000000000000FB
:103BC00000000300000100020000000000000000EF
:103BD000000000000000000000060000C8002401F2
:103BE0002401A400F8010000000000000000000013
:103BF000060000FF01880004010401F80000000035
:103C000000000000000000060000F80004010401AC
:103C10000401880000000000000000000000060011
:103C200000F800040104010801FF01000000000089
:103C30000000000000060000F80024012401240117
:103C4000B8000000000000000000000005000004B3
:103C500000FE01050001000000000000000000005F
:103C6000000000060000F804040504058804FC03B5
:103C700000000000000000000000060000FF010836
:103C80000004000400F80100000000000000000033
:103C900000020000FD010000000000000000000024
:103CA00000000000000000000300000004FD03000D
:103CB00000000000000000000000000000000006FE
:103CC0000000FF0120003000C800040100000000D7
:103CD000000000000000020000FF010000000000E2
:103CE000000000000000000000000000000A0000CA
:103CF000FC01080004000400F801080004000400AE
:103D0000F8010000060000FC01080004000400F8AF
:103D10000100000000000000000000060000F800A4
:103D2000040104010401F80000000000000000008C
:103D30000000060000FC07880004010401F80000F0
:103D4000000000000000000000060000F800040170
:103D500004018800FC0700000000000000000000D3
:103D6000040000FC01080004000000000000000046
:103D7000000000000000000600009800240124015B
:103D80002401C80000000000000000000000040042
:103D9000000400FF0104010000000000000000001A
:103DA0000000000000060000FC000001000100010E
:103DB000FC01000000000000000000000600000CF4
:103DC000007000800170000C000000000000000086
:103DD0000000000A00000C007000800170000C0060
:103DE0007000800170000C0000000600000401D883
:103DF000002000D8000401000000000000000000C6
:103E0000000600000C007004800370000C0000002D
:103E100000000000000000000600000401C40124AE
:103E2000011C01040100000000000000000000046B
:103E300000002000DE03010400000000000000007C
:103E4000000000000000020000FF0700000000006A
:103E5000000000000000000000000000000400005E
:103E60000104DE032000000000000000000000004C
:103E700000000000070000200010001000200020BB
:103E8000001000000000000000000003FE0302021A
:103E9000FE03000000000000000000000000000021
:103EA00000003D1414030B0000000000000000009F
:103EB0000000000000000000000000000000000002
:103EC00000000000000000000000000000000000F2
:103ED00000000000000000000000000000000000E2
:103EE00000000005000000000000FCE300FCE7000B
:103EF000FCE30000000000000000000000000000E3
:103F000000000000000000000000000000000000B1
:103F100000000000000000000000000000000000A1
:103F2000090000007C00007C00007C000000000014
:103F30000000007C00007C00007C0000000000000D
:103F40000000000000000000000000000000000071
:103F5000000000000000000000000000000B600CEA
:103F60000060FC00E0FF00F81F00FC0C0064CC00C7
:103F700060FE00F07F00FC0F007C0C00400C000095
:103F80000000000000000000000000000000000031
:103F9000000000000000000000000B000000F078AE
:103FA00000F8F900CCE10084C100FFFF0FFFFF0F14
:103FB00084C3001CE700387F00103E0000000000B2
:103FC00000000000000000000000000000000000F1
:103FD0000000000000000011F80000FC01000401D6
:103FE0000004010004C100F8E100F03800000E00F8
:103FF000000700C00100707C0038FE000C82000049
:10400000820000820000FE00007C00000000000032
:10401000000000000F000000003C00007E0070FE69
:1040200000F8E700FCC3008CC3008CC700CCEE0096
:10403000F87C00707800007E0000EE0000E40000D4
:104040004000000000000000000000000000000030
:1040500000040000007C00007C00007C00000000E8
:104060000000000000000000000000000000000050
:104070000000000000000000000000000000000040
:10408000000000000000000000000000000006002A
:104090000000003F00E0FF01F0FF037880070C0004
:1040A0000C00000000000000000000000000000004
:1040B0000000000000000000000000000000000000
:1040C0000000000000000000000000060000000CDE
:1040D000000C788007F0FF03E0FF01003F000000C4
:1040E00000000000000000000000000000000000D0
:1040F00000000000000000000000000000000000C0
:10410000000000000000000008180000980000D027
:1041100000007E00007E0000D00000D800001800E3
:10412000000000000000000000000000000000008F
:10413000000000000000000000000000000000007F
:1041400000000000000B000300000300000300005B
:104150000300F03F00F03F00F03F000003000003C9
:104160000000030000030000000000000000000049
:10417000000000000000000000000000000000003F
:1041800000000500000000000000E00400E007005F
:10419000E00100000000000000000000000000003E
:1041A000000000000000000000000000000000000F
:1041B00000000000000000000000000000000006F9
:1041C000000C00000C00000C00000C00000C0000B3
:1041D0000C000000000000000000000000000000D3
:1041E00000000000000000000000000000000000CF
:1041F00000000000000000000000000005000000BA
:1042000000000000E00000E00000E000000000000E
:10421000000000000000000000000000000000009E
:10422000000000000000000000000000000000008E
:104230000000000000000000000500E00000FE009B
:10424000E01F00FC01001C00000000000000000056
:10425000000000000000000000000000000000005E
:10426000000000000000000000000000000000004E
:104270000000000000000B000000E01F00F03F0005
:10428000F87F001CE0000CC0000CC0001CE000F82F
:104290007F00F03F00E01F00000000000000000071
:1042A000000000000000000000000000000000000E
:1042B00000000008000000C00000E00000600000F6
:1042C000300000F8FF00FCFF00FCFF0000000000D1
:1042D00000000000000000000000000000000000DE
:1042E00000000000000000000000000000000000CE
:1042F0000B00000070E00078F0003CF8000CFC00BF
:104300000CDC000CCE001CC700F8C300F8C100F0A4
:10431000C0000000000000000000000000000000DD
:10432000000000000000000000000000000B000082
:10433000001038003878001CE1008CC1008CC100EE
:104340008CC100FCE300F87F00787E00001C0000B8
:10435000000000000000000000000000000000005D
:10436000000000000000000000000C000800001E1B
:1043700000001F00801B00C01900701800381800D2
:10438000FCFF00FCFF00FCFF00001800001800000C
:10439000000000000000000000000000000000001D
:1043A000000000000000000B000000E03900FC7974
:1043B00000FCE100CCC000CCC000CCC000CCE100CF
:1043C0008C7F008C3F00081E0000000000000000F1
:1043D00000000000000000000000000000000000DD
:1043E000000000000B000000C01F00F03F00F87F3D
:1043F000001CE3008CC1008CC1009CE300BC7F006A
:10440000387F00003E0000000000000000000000B7
:10441000000000000000000000000000000000009C
:10442000000B0000000C00000C00000CF0000CFC65
:10443000000CFF00CC0F00EC01007C00003C0000F1
:104440000C00000000000000000000000000000060
:1044500000000000000000000000000000000B0051
:104460000000003C00787E00F8FF00DCE3008CC117
:10447000008CC100DCE300FCFF00787E00003C0003
:10448000000000000000000000000000000000002C
:1044900000000000000000000000000BE00100F838
:1044A0007300F877001CE7000CC6000CC6000CC6B1
:1044B000001CE300F87F00F03F00E00F0000000068
:1044C00000000000000000000000000000000000EC
:1044D000000000000000000005000000000000C017
:1044E000E100C0E100C0E1000000000000000000A9
:1044F00000000000000000000000000000000000BC
:1045000000000000000000000000000000000000AB
:10451000000000000005000000000000C0E106C02F
:10452000E107C0C101000000000000000000000021
:10453000000000000000000000000000000000007B
:10454000000000000000000000000000000000006B
:1045500000000B000000800300800300C00700C0C3
:104560000600E00E00E00E00600C00701C00301829
:1045700000383800000000000000000000000000CB
:104580000000000000000000000000000000000B20
:10459000000000C00C00C00C00C00C00C00C00C02B
:1045A0000C00C00C00C00C00C00C00C00C00C00C03
:1045B00000000000000000000000000000000000FB
:1045C0000000000000000000000000000B000000E0
:1045D000703800601800601800E01C00C00C00C0BB
:1045E0000E00800700800700800700000300000025
:1045F00000000000000000000000000000000000BB
:104600000000000000000000000B0000007000002F
:104610007800003C00000CEC000CEF000CEF009C5C
:104620000300FC0100F80000700000000000000022
:10463000000000000000000000000000000000007A
:1046400000000000000014003F00C0FF00E0C101B6
:10465000700003383C07187F0698FF0ECCC30CCCC3
:10466000C00CCCC00CCC600C8CF90CCCFF0CDCCF9B
:104670000CD8C00C386006707806E03F03800F014C
:104680000000010E00000000E00000F800007F00C4
:10469000C00F00F80F007C0C000C0C007C0C00F02C
:1046A0000F00C01F00007F0000F80000E0000000C5
:1046B00000000000000000000000000000000000FA
:1046C0000D000000FCFF00FCFF00FCFF000CC3001D
:1046D0000CC3000CC3000CC3000CC300FCE700F8C3
:1046E000FF00F87E00003C00000000000000000019
:1046F000000000000000000000000000000E0000AC
:1047000000C00F00F03F00F87F003870001CE00090
:104710000CC0000CC0000CC0000CC0001CE00078F5
:104720007800703C006018000000000000000000ED
:10473000000000000000000000000E00000000006B
:1047400000FCFF00FCFF00FCFF000CC0000CC000E0
:104750000CC0000CC0001CE0003CF000F87F00F032
:104760003F00C00F0000000000000000000000003B
:10477000000000000000000D000000000000FCFF31
:1047800000FCFF00FCFF000CC3000CC3000CC300C6
:104790000CC3000CC3000CC3000CC3000CC0000011
:1047A0000000000000000000000000000000000009
:1047B000000000000B000000FCFF00FCFF00FCFFFD
:1047C000000C03000C03000C03000C03000C03009E
:1047D0000C03000C000000000000000000000000BE
:1047E00000000000000000000000000000000000C9
:1047F000000F000000C00F00F03F00F87F0038708D
:10480000001CE0000CC0000CC0000CC6000CC60070
:104810001CC6003CE600787E00707E00403E000032
:1048200000000000000000000000000000000E007A
:104830000000000000FCFF00FCFF00FCFF00800106
:1048400000800100800100800100800100800100E3
:10485000FCFF00FCFF00FCFF000000000000000067
:104860000000000000000000000000050000000043
:104870000000FCFF00FCFF00FCFF00000000000047
:104880000000000000000000000000000000000028
:104890000000000000000000000000000000000018
:1048A00000000000000000000A001800007C00006A
:1048B000FC0000E00000C00000C00000E000FCFFC1
:1048C00000FC7F00FC3F0000000000000000000032
:1048D00000000000000000000000000000000000D8
:1048E00000000000000E000000000000FCFF00FCC3
:1048F000FF00FCFF00000700800300C00100E0078C
:1049000000700F00783E003C7C001CF00008E000C6
:104910000000000000000000000000000000000097
:1049200000000B000000FCFF00FCFF00FCFF00008B
:10493000C00000C00000C00000C00000C00000C0F7
:104940000000C000000000000000000000000000A7
:104950000000000000000000000000000000000F48
:10496000000000FCFF00FCFF00FCFF007C0000FCDE
:104970000700E07F0000FE0000FE00C07F00F80797
:10498000007C0000FCFF00FCFF00FCFF00000000BA
:104990000000000000000000000000000E00000009
:1049A000F8FF00FCFF00FCFF00780000F00000C0F2
:1049B0000300800700000F00003C00007800FCFFAF
:1049C00000FCFF00FCFF00000000000000000000F1
:1049D0000000000000000000000F000000C00F00F9
:1049E000F03F00F87F003870001CE0000CC0000CA5
:1049F000C0000CC0000CC0001CE000387000F87F44
:104A000000F03F00C00F00000000000000000000A8
:104A10000000000000000D000000000000FCFF008E
:104A2000FCFF00FCFF000C03000C03000C03000C57
:104A300003009C0300FC0300F80100F000000000EC
:104A40000000000000000000000000000000000066
:104A500000000010000000C00F00F03F00F87F00D1
:104A60003870001CE0000CC0000CD8000CD8000C02
:104A7000F0001CF000387000F8FF00F0FF01C08F5C
:104A80000100000100000000000000000000000024
:104A90000D000000FCFF00FCFF00FCFF000C030009
:104AA0000C03000C03000C07000C0F009C3F00FCE3
:104AB0007900F8F100F0E0000000000000000000C4
:104AC000000000000000000000000000000D0000D9
:104AD00000F03800F87900F871009CE1008CC30008
:104AE0008CC3000CC3000CC3001CE700787F00706F
:104AF0007E00003C000000000000000000000000FC
:104B0000000000000000000000000D0800000C0084
:104B1000000C00000C00000C0000FCFF00FCFF007B
:104B2000FCFF000C00000C00000C00000C00000852
:104B30000000000000000000000000000000000075
:104B4000000000000000000E000000000000FC1F3C
:104B500000FC7F00FC7F0000E00000C00000C000FF
:104B600000C00000C00000E000FC7F00FC7F00FCF3
:104B70001F00000000000000000000000000000016
:104B8000000000000D1C00007C0000FC0300E00F92
:104B900000807F0000FC0000E00000FC00007F00BF
:104BA000E00F00FC03007C00001C0000000000007F
:104BB00000000000000000000000000000000000F5
:104BC00000123C0000FC0100F81F0080FF0000F80C
:104BD0000000FE00C03F00F807007C00007C0000E1
:104BE000F80300C03F0000FE0000F80080FF00F85E
:104BF0001F00FC01003C00000000000000000C0849
:104C0000C0001CF0007CF800F83C00E01F00C00F62
:104C100000C00F00E01F00F03C007CF8001CF0001A
:104C20000CC00000000000000000000000000000B8
:104C300000000000000000000000000C0000001C4C
:104C400000003C0000F80000F00100C0FF0080FF01
:104C500000C0FF00F00100F800003C00001C000054
:104C60000000000000000000000000000000000044
:104C700000000000000000000D00E0000CF0000C3F
:104C8000F8000CFC000CDE000CCF008CC700ECC35D
:104C900000FCC100FCC0003CC0001CC00000C00003
:104CA0000000000000000000000000000000000004
:104CB000000000000007000000FCFF0FFCFF0FFCDD
:104CC000FF0F0C000C0C000C0C000C00000000008E
:104CD00000000000000000000000000000000000D4
:104CE00000000000000000000000000000000000C4
:104CF0000000050C0000FC0000F00F0000FF0000A9
:104D0000F0000000000000000000000000000000B3
:104D10000000000000000000000000000000000093
:104D2000000000000000000000000000000000067D
:104D30000C000C0C000C0C000CFCFF0FFCFF0FFC1B
:104D4000FF0F000000000000000000000000000055
:104D50000000000000000000000000000000000053
:104D60000000000000000000000000000B00000038
:104D7000000200800300E00300F801003C00007C1A
:104D80000000F80100E00300000300000200000042
:104D90000000000000000000000000000000000013
:104DA0000000000000000000000A000004000004F1
:104DB00000000400000400000400000400000400DF
:104DC00000040000040000040000000000000000D7
:104DD00000000000000000000000000000000000D3
:104DE000000000000000050000000400000C0000AE
:104DF0001C00001000000000000000000000000087
:104E000000000000000000000000000000000000A2
:104E10000000000000000000000000000000000092
:104E20000000000C00000000700080F900C0FD00D0
:104E3000C0CC00C0CC00C04400C06600C07F008071
:104E4000FF0080FF00008000000000000000000064
:104E50000000000000000000000000000000000052
:104E60000C000000FCFF00FCFF00FCFF0080610064
:104E7000C0C000C0C000C0C000C0E100C0FF0080D2
:104E80007F00001F00000000000000000000000084
:104E9000000000000000000000000000000B000007
:104EA00000001E00807F00807F00C0E100C0C000C5
:104EB000C0C000C0C000C0E100807300807300006B
:104EC00000000000000000000000000000000000E2
:104ED000000000000000000000000B000000003F88
:104EE00000807F00C0FF00C0E100C0C000C0C00063
:104EF000806100FCFF00FCFF00FCFF0000000000E0
:104F000000000000000000000000000000000000A1
:104F1000000000000000000B000000001E00807F69
:104F200000807F00C0ED00C0CC00C0CC00C0CC0031
:104F3000C0CD00806F00006F000000000000000086
:104F40000000000000000000000000000000000061
:104F50000000000008C00000C00000F8FF00FCFFD7
:104F600000FCFF00CC0000CC00000C0000000000A2
:104F70000000000000000000000000000000000031
:104F80000000000000000000000000000000000021
:104F9000000B000000003F02807F07C0FF0FC0E150
:104FA0000CC0C00CC0C00C80610EC0FF0FC0FF075A
:104FB000C0FF03000000000000000000000000002F
:104FC00000000000000000000000000000000B00D6
:104FD0000000FCFF00FCFF00FCFF00800100C0009F
:104FE00000C00000C00000C0FF0080FF0000FF0004
:104FF00000000000000000000000000000000000B1
:10500000000000000000000000000004000000CCD0
:10501000FF00CCFF00CCFF000000000000000000FB
:105020000000000000000000000000000000000080
:105030000000000000000000000000000000000070
:1050400000000000000000000400000CCCFF0FCCAA
:10505000FF0FCCFF07000000000000000000000070
:105060000000000000000000000000000000000040
:105070000000000000000000000000000000000030
:1050800000000000000B000000FCFF00FCFF00FC23
:10509000FF00000E00000700801F00C03D00C0F1AF
:1050A00000C0E000008000000000000000000000E0
:1050B00000000000000000000000000000000000F0
:1050C000000004000000FCFF00FCFF00FCFF0000EB
:1050D00000000000000000000000000000000000D0
:1050E00000000000000000000000000000000000C0
:1050F000000000000000000000000000000000119F
:10510000000000C0FF00C0FF00C0FF00800100C021
:105110000000C00000C0FF00C0FF0080FF00800151
:1051200000C00000C00000C00000C0FF0080FF0001
:1051300080FF000000000000000000000B000000E5
:10514000C0FF00C0FF00C0FF00800100C00000C021
:105150000000C00000C0FF0080FF0000FF00000052
:10516000000000000000000000000000000000003F
:105170000000000000000000000C000000001E0005
:10518000807F00807F00C0E100C0C000C0C000C0C0
:10519000C000C0E100807F00807F00001E00000092
:1051A00000000000000000000000000000000000FF
:1051B0000000000000000C000000C0FF0FC0FF0F47
:1051C000C0FF0F806100C0C000C0C000C0C000C0F0
:1051D000E100C0FF00807F00001E00000000000012
:1051E00000000000000000000000000000000000BF
:1051F0000000000B000000003F00807F00C0FF00A7
:10520000C0E100C0C000C0C000806100C0FF0FC08E
:10521000FF0FC0FF0F0000000000000000000000B2
:10522000000000000000000000000000000000007E
:1052300009000000C0FF00C0FF00C0FF00800100A7
:10524000C00000C00000C00000800000000000009E
:10525000000000000000000000000000000000004E
:10526000000000000000000000000000000A000034
:1052700000807300807700C0E700C0CC00C0CC0085
:10528000C0CD00C0FF00807B00003800000000009F
:10529000000000000000000000000000000000000E
:1052A0000000000000000000000008800000C000B6
:1052B00000FC7F00FCFF00FCFF00C0C000C0C0007D
:1052C00000C000000000000000000000000000001E
:1052D00000000000000000000000000000000000CE
:1052E000000000000000000B000000C03F00C07F75
:1052F00000C0FF0000E00000C00000C0000060002F
:10530000C0FF00C0FF00C0FF000000000000000060
:10531000000000000000000000000000000000008D
:10532000000000000AC00100C00700801F00007ECE
:105330000000F00000F000007E00801F00C00700A9
:10534000C00000000000000000000000000000009D
:10535000000000000000000000000000000000004D
:105360000010C00100C00700803F0000FC0000E00A
:105370000000FC00803F00C00700C00700803F0025
:1053800000FC0000E00000FC00803F00C00700C0FF
:1053900001000000000000000000000000000AC042
:1053A000C000C0E100C0F300807F00003F00003F6C
:1053B00000807F00C0F300C0E100C0C0000000001A
:1053C00000000000000000000000000000000000DD
:1053D00000000000000000000000000AC0010CC036
:1053E000070C801F0C00FE0F00F00700F00300FE0A
:1053F00000801F00C00700C0010000000000000086
:10540000000000000000000000000000000000009C
:1054100000000000000000000AC0C000C0E000C0A2
:10542000F000C0F800C0DC00C0CE00C0C700C0C3A0
:1054300000C0C10000C0000000000000000000002B
:10544000000000000000000000000000000000005C
:10545000000000000007000C00001E00F8FF07FC21
:10546000FF0FFCF30F0C000C0C000C000000000000
:10547000000000000000000000000000000000002C
:10548000000000000000000000000000000000001C
:10549000000004000000000000FCFF0FFCFF0F00F4
:1054A00000000000000000000000000000000000FC
:1054B00000000000000000000000000000000000EC
:1054C00000000000000000000000000000000007D5
:1054D0000C000C0C000CFCF30FFCFF0FF8FF070096
:1054E0001E00000C00000000000000000000000092
:1054F00000000000000000000000000000000000AC
:105500000000000000000000000000000B00070089
:10551000800300800300800300800300000300007C
:1055200007000007000007000007008003000000DC
:10553000000000000000000000000000000000006B
:1055400000000000000000000005FC7F0004400097
:10555000044000044000FC7F000000000000000048
:10556000000000000000000000000000000000003B
:10557000000000000000000000000000000000002B
:1055800000000000000011080E02050000000000ED
:105590000000000000000000000000060000000005
:1055A0003800FC06FC063800000000000700001C64
:1055B000001C00000000001C001C0000000800008F
:1055C0001001FC07FC071001FC07FC071001070095
:1055D0000018023C06671CC71C8C07080300000863
:1055E0000C001E039201DE066C0F3009180F000636
:1055F000080000D803FC072404BC0498038007803B
:1056000004050000000000001C001C000000000059
:1056100000000600000000E003F80F1C1C0410004E
:10562000000000060000000004101C1CF80FE0033E
:105630000000000008000040005001F001E000F010
:10564000015001400007000040004000F001F0015F
:1056500040004000000006000000000000001600AE
:105660001E000E0000000007000040004000400047
:105670004000400040000000060000000000000064
:10568000060006000600000000070000000C000FE6
:10569000C003F0003C000C0000000800000000F80F
:1056A00003FC0704040404FC07F8030600001000D0
:1056B00010001800FC07FC0700000000070000189D
:1056C000061C078405C4047C04380400000700009D
:1056D00018031C0744044404FC07B8030000080036
:1056E000008001FC017C010001F007F007000107C8
:1056F00000007C047C0444044406C40384010000CC
:10570000070000E003F0073C042C04E407C003009A
:105710000007000004000407C407F4003C000C006C
:105720000000070000B803FC076404C404FC07B8C9
:105730000300000700007800FC0484068407FC01D5
:10574000F8000000060000000000003006300630BF
:105750000600000000060000000000003016301EA9
:10576000300E000000000700004000E000B001180B
:10577000030C0604040000070000A000A000A00025
:10578000A000A000A000000007000004040C061800
:1057900003B001E0004000000007000018001C00FA
:1057A000C406E4063C001800000008F803FC0704E7
:1057B00004C404E4052405FC05F805070000F0070F
:1057C000F8078C008C00F807F0070000070000FCC9
:1057D00007FC0744044404FC07B80300000700006A
:1057E000F803FC07040404041C0718030000070066
:1057F00000FC07FC0704040C06F803F00100000796
:105800000000FC07FC0744044404440404040000B2
:10581000070000FC07FC07440044004400040000AB
:1058200000070000F803FC07040484049C079807A1
:105830000000070000FC07FC0740004000FC07FCDC
:1058400007000006000000000404FC07FC07040435
:10585000000000000700000003000700040004FC33
:1058600007FC030000070000FC07FC074000F001F4
:10587000BC070C060000070000FC07FC0700040042
:1058800004000400040000080000FC07FC071000EE
:10589000E0001000FC07FC07080000FC07FC0730D4
:1058A000006000C000FC07FC07070000F803FC07CD
:1058B00004040404FC07F8030000070000FC07FCD4
:1058C00007440044007C0038000000070000F80393
:1058D000FC070404040CFC1FF8130000070000FC84
:1058E00007FC074400C400FC07380700000700005D
:1058F00018023C066404C4048C0708030000070077
:105900000004000400FC07FC07040004000000077A
:105910000000FC03FC0700040004FC07FC0300007B
:10592000070000FC01FC0300060006FC03FC01006C
:1059300000080000FC00FC070007E0000007FC076F
:10594000FC000700000C079C077000E0009C070C9F
:105950000700000700003C007C00C007C0077C0077
:105960003C00000007000004078407C40464043CF2
:10597000041C0400000600000000FC3FFC3F042063
:105980000420000000000700000C003C00F000C0F4
:1059900003000F000C00000600000000042004209B
:1059A000FC3FFC3F0000000007000004000600036D
:1059B0000003000600040000000800200020002072
:1059C0000020002000200020002006000000000130
:1059D00000030007000400000000000700000003AF
:1059E000900790049004F007E0070000070000FC17
:1059F00007FC0710041004F007E003000007000094
:105A0000E003F00710041004300620020000070035
:105A100000E003F00710041004FC07FC0700000777
:105A20000000E003F00790049004F004E0000000A0
:105A30000700004000F807FC074400440044000051
:105A400000070000E023F02710241024F03FF01F8F
:105A50000000070000FC07FC0710001000F007E042
:105A600007000007000010041004F607F607000402
:105A700000040000060000002010201020F63FF671
:105A80001F00000000070000FC07FC078000C001A9
:105A900070073006000007000004040404FC07FC43
:105AA00007000400040000080000F007F0071000E1
:105AB000F0031000F007E007070000F007F0071000
:105AC000001000F007E0070000070000E003F00707
:105AD00010041004F007E0030000070000F03FF09E
